:100000000C944D000C946C000C946C000C946C00DF
:100010000C946C000C946C000C946C000C946C00B0
:100020000C946C000C946C000C946C000C946C00A0
:100030000C946C000C946C000C946C000C946C0090
:100040000C946C000C946C000C946C000C946C0080
:100050000C946C000C946C000C946C000C946C0070
:100060000C946C000C946C000C946C000C946C0060
:100070000C946C000C946C000C946C000C946C0050
:100080000C946C000C946C000C946C00BC00C300CD
:10009000E000E70006010D012A0111241FBECFEF89
:1000A000D0E4DEBFCDBF11E0A0E0B1E0EEE0F3E0D0
:1000B00000E00BBF02C007900D92AE30B107D9F738
:1000C00011E0AEE0B1E001C01D92A031B107E1F74F
:1000D0000E9462010C9485010C940000CF93DF9381
:1000E00000D01F92CDB7DEB789837B836A83898175
:1000F0008A3031F48A819B81BC018DE00E946E00C0
:1001000080EC90E0FC018081882F90E0807299273C
:100110000097B1F386EC90E02981FC01208380E018
:1001200090E00F900F900F90DF91CF910895CF93B3
:10013000DF9300D0CDB7DEB780E290E0FC01808194
:100140008A8388E290E0FC018081898380910E019E
:1001500090910F01CC01A0E0B0E040E050E026E03B
:1001600030E0841B950B2817390708F47AC08A5BA6
:100170009F4FFC010C947C0181E090E090930F0173
:1001800080930E0175C08A81813031F482E090E065
:1001900090930F0180930E018A81823031F484E0C4
:1001A00090E090930F0180930E018A81833039F49F
:1001B00086E090E090930F0180930E0159C058C0E3
:1001C00083E090E090930F0180930E0151C08A81EB
:1001D000882339F481E090E090930F0180930E0121
:1001E00014C08A81813039F483E090E090930F014C
:1001F00080930E010AC08A81833039F486E090E052
:1002000090930F0180930E0133C032C085E090E0DF
:1002100090930F0180930E012BC08A81882339F4BB
:1002200081E090E090930F0180930E0113C08A81CA
:10023000823039F485E090E090930F0180930E01B5
:1002400009C08A81833031F486E090E090930F01F9
:1002500080930E0186E090E090930F0180930E0151
:1002600007C081E090E090930F0180930E010000A1
:1002700080910E0190910F018530910579F08630C3
:100280009105A1F08330910509F012C08981893070
:1002900020F489818F5F89830BC00AC089818823FC
:1002A00021F089818150898303C002C01982000036
:1002B00088E290E02981FC0120830F900F90DF916C
:1002C000CF910895CF93DF93CDB7DEB781E290E071
:1002D000FC01108282E290E02FEFFC01208387E294
:1002E00090E02FEFFC01208388E290E027E0FC0102
:1002F00020830E949700FDCFEE0FFF1F0024001CFB
:0E0300000BBE0790F691E02D0994F894FFCF04
:0E030E0000000002000000006E000000000071
:00000001FF
