:100000000C9446000C9465000C9465000C946500FB
:100010000C9465000C9465000C9465000C946500CC
:100020000C9465000C9465000C9465000C946500BC
:100030000C9465000C9465000C9465000C946500AC
:100040000C9465000C9465000C9465000C9465009C
:100050000C9465000C9465000C9465000C9465008C
:100060000C9465000C9465000C9465000C9465007C
:100070000C9465000C9465000C9465000C9465006C
:100080000C9465000C9465000C94650011241FBE4F
:10009000CFEFD0E4DEBFCDBF11E0A0E0B1E0E8E8F3
:1000A000F2E000E00BBF02C007900D92AE30B10746
:1000B000D9F711E0AEE0B1E001C01D92A231B10765
:1000C000E1F70E941B010C9442010C940000CF93B5
:1000D000DF9300D01F92CDB7DEB789837B836A831D
:1000E00089818A3031F48A819B81BC018DE00E9434
:1000F000670080EC90E0FC018081882F90E08072A6
:1001000099270097B1F386EC90E02981FC012083C8
:1001100080E090E00F900F900F90DF91CF910895C5
:10012000CF93DF93CDB7DEB780911001909111018D
:100130008230910509F441C08330910530F4009775
:1001400059F08130910579F045C08330910539F13E
:1001500084309105B1F03EC081E090E090931101B0
:10016000809310013EC080910E01882319F481E034
:1001700090E002C084E090E0909311018093100120
:1001800030C080910E01813019F484E090E002C00B
:1001900083E090E0909311018093100122C0809140
:1001A0000E01882319F483E090E002C082E090E021
:1001B000909311018093100114C080910E01813041
:1001C00019F482E090E002C081E090E09093110188
:1001D0008093100181E090E09093110180931001D1
:1001E0000000809110019091110182309105D1F0B1
:1001F0008330910520F48130910541F017C08330A0
:10020000910561F08430910529F010C081E0809360
:100210000F010EC082E080930F010AC082E080933C
:100220000F0106C081E080930F0102C010920F0100
:10023000DF91CF910895CF93DF93CDB7DEB781E201
:1002400090E0FC01108282E290E02FEFFC0120831D
:1002500084E290E02FEFFC01208385E290E0FC0136
:10026000108280E290E0FC01808180930E01109268
:100270000F010E94900085E290E020910F01FC01A7
:080280002083EFCFF894FFCFBB
:0E0288000000000200000000670000000000FF
:00000001FF
