:100000000C9446000C945D000C945D000C945D0013
:100010000C945D000C945D000C945D000C945D00EC
:100020000C945D000C945D000C945D000C945D00DC
:100030000C945D000C945D000C945D000C945D00CC
:100040000C945D000C945D000C945D000C945D00BC
:100050000C945D000C945D000C945D000C945D00AC
:100060000C945D000C945D000C945D000C945D009C
:100070000C945D000C945D000C945D000C945D008C
:100080000C945D000C945D000C945D0011241FBE67
:10009000CFEFD0E4DEBFCDBF11E0A0E0B1E0EEE3F2
:1000A000F1E000E00BBF02C007900D92AE30B10747
:1000B000D9F70E9470000C949D000C940000CF931F
:1000C000C82F8A3019F48DE00E945F009091C00023
:1000D00095FFFCCFC093C60080E090E0CF910895DB
:1000E00011B88FEF82B914B885B917B888B98AB931
:1000F0001BB8E0B183B136B16E2F70E0AB01480F91
:10010000511DCA01432F50E0840F951F8D38910572
:1001100010F420E001C021E03E1728F4FB01E41BAD
:10012000F50BAF0102C0461B570B4135510508F0D6
:0E01300022608C7F822B8BB9DCCFF894FFCF3E
:0E013E0000000002000000005F000000000052
:00000001FF
