:100000000C9446000C945D000C945D000C945D0013
:100010000C945D000C945D000C945D000C945D00EC
:100020000C945D000C945D000C945D000C945D00DC
:100030000C945D000C945D000C945D000C945D00CC
:100040000C945D000C945D000C945D000C945D00BC
:100050000C945D000C945D000C945D000C945D00AC
:100060000C945D000C945D000C945D000C945D009C
:100070000C945D000C945D000C945D000C945D008C
:100080000C945D000C945D000C945D0011241FBE67
:10009000CFEFD0E4DEBFCDBF11E0A0E0B1E0E2E7FA
:1000A000F1E000E00BBF02C007900D92AE30B10747
:1000B000D9F70E9470000C94B7000C940000CF9305
:1000C000C82F8A3019F48DE00E945F009091C00023
:1000D00095FFFCCFC093C60080E090E0CF910895DB
:1000E00011B88FEF82B987B918B880B18F708F308F
:1000F00011F09FEF01C090E023EF280F223028F08D
:100100008B3029F0873031F404C091E003C091E0D6
:1001100001C091E08C3059F08A3059F0893059F0A3
:10012000863059F0853059F0833061F40AC092E08E
:1001300009C092E007C092E005C092E003C092E0DF
:1001400001C092E0883039F0843039F0823039F0E3
:10015000813041F406C093E005C093E003C093E012
:1001600001C093E0811101C094E098B9BECFF8942A
:02017000FFCFBF
:0E01720000000002000000005F00000000001E
:00000001FF
