:100000000C9446000C9465000C9465000C946500FB
:100010000C9465000C9465000C9465000C946500CC
:100020000C9465000C9465000C9465000C946500BC
:100030000C9465000C94DE000C9465000C94650033
:100040000C9465000C9465000C9465000C9465009C
:100050000C9465000C9465000C9465000C9465008C
:100060000C9465000C9465000C9465000C9465007C
:100070000C9465000C9465000C9465000C9465006C
:100080000C9465000C9465000C94650011241FBE4F
:10009000CFEFD0E4DEBFCDBF11E0A0E0B1E0EEE1F4
:1000A000F5E000E00BBF02C007900D92A231B1074E
:1000B000D9F721E0A2E1B1E001C01D92AA31B20757
:1000C000E1F70E9460020C948D020C940000CF9323
:1000D000DF9300D00F92CDB7DEB789837B836A832D
:1000E00089818A3031F48A819B81BC018DE00E9434
:1000F000670080EC90E0FC018081882F90E08072A6
:100100009927892BB1F386EC90E02981FC012083AB
:1001100080E090E00F900F900F90DF91CF910895C5
:10012000CF93DF93CDB7DEB781E890E02BE0FC0101
:10013000208388E890E02BE730E0FC0131832083C6
:100140008FE690E022E0FC01208384E890E0FC014F
:100150001182108280910E0190910F01A0911001E7
:10016000B09111018093130190931401A093150194
:10017000B09316018FE590E0FC0120818FE590E0BF
:100180002068FC0120830000DF91CF910895CF9378
:10019000DF93CDB7DEB781E890E0FC01108200006C
:1001A000DF91CF910895CF93DF93CDB7DEB781E094
:1001B000809312010000DF91CF9108951F920F925A
:1001C0000FB60F9211240BB60F922F933F934F93BC
:1001D0005F936F937F938F939F93AF93BF93EF93AF
:1001E000FF93CF93DF93CDB7DEB78091130190914A
:1001F0001401A0911501B09116010197A109B1094F
:100200008093130190931401A0931501B0931601EC
:100210008091130190911401A0911501B0911601E4
:10022000892B8A2B8B2B91F40E94D30080910E0195
:1002300090910F01A0911001B091110180931301D1
:1002400090931401A0931501B09316010000DF9163
:10025000CF91FF91EF91BF91AF919F918F917F913E
:100260006F915F914F913F912F910F900BBE0F9027
:100270000FBE0F901F901895CF93DF9300D000D042
:10028000CDB7DEB769837A838B839C8389819A811A
:10029000AB81BC8180930E0190930F01A09310015C
:1002A000B093110180910E0190910F01A091100166
:1002B000B09111018093130190931401A093150143
:1002C000B093160100000F900F900F900F90DF91E8
:1002D000CF910895CF93DF9300D0CDB7DEB780E202
:1002E00090E0FC01808180958A8385E290E0FC01AA
:1002F0008081898380911801909119018430910542
:1003000009F47EC08530910508F082C083309105E4
:1003100009F45BC08430910508F07AC08230910501
:10032000C9F18330910508F073C0009719F0019767
:1003300041F06EC081E090E0909319018093180124
:1003400067C08A81813039F482E090E0909319018E
:10035000809318015CC08A81823039F483E090E098
:10036000909319018093180152C08A81833039F427
:1003700084E090E0909319018093180148C08A812D
:10038000882309F044C081E090E0909319018093A4
:1003900018013DC08A81813039F482E090E0909369
:1003A00019018093180134C08A81833039F484E0C4
:1003B00090E090931901809318012AC081E090E0A9
:1003C000909319018093180123C08A81823039F4F7
:1003D00083E090E0909319018093180119C08A81FD
:1003E000833039F484E090E09093190180931801F0
:1003F0000FC081E090E0909319018093180108C02C
:1004000081E090E0909319018093180101C00000F1
:1004100080911801909119018430910509F43CC034
:100420008530910508F040C08330910519F1843082
:100430009105D0F58230910559F083309105A0F5F2
:10044000009719F0019761F12FC087E089832DC0D3
:100450008981893048F4809117018A3029F4898193
:100460008F5F898310921701809117018F5F8093AE
:1004700017011BC08981882349F0809117018A30B8
:1004800029F4898181508983109217018091170185
:100490008F5F8093170109C010921701198205C060
:1004A0008AE08093170101C0000085E290E0298175
:1004B000FC01208300000F900F90DF91CF910895F1
:1004C000CF93DF93CDB7DEB781E290E0FC011082DD
:1004D00082E290E02FEFFC01208384E290E02FEF96
:1004E000FC01208385E290E027E0FC0120836AE0A4
:1004F00070E080E090E00E943C010E949000109229
:100500001901109218010E946A01000080911201E5
:0E0510008823E1F310921201F6CFF894FFCF8A
:10051E000000000200000000670000000000010063
:02052E000000CB
:00000001FF
