:100000000C9446000C945D000C945D000C945D0013
:100010000C945D000C945D000C945D000C945D00EC
:100020000C945D000C945D000C945D000C945D00DC
:100030000C945D000C945D000C945D000C945D00CC
:100040000C945D000C945D000C945D000C945D00BC
:100050000C945D000C945D000C945D000C945D00AC
:100060000C945D000C945D000C945D000C945D009C
:100070000C945D000C945D000C945D000C945D008C
:100080000C945D000C945D000C945D0011241FBE67
:10009000CFEFD0E4DEBFCDBF11E0A0E0B1E0ECEAED
:1000A000F1E000E00BBF02C007900D92AE30B10747
:1000B000D9F70E9488000C94D4000C940000CF93D0
:1000C000DF9300D01F92CDB7DEB789837B836A832D
:1000D00089818A3031F48A819B81BC018DE00E9444
:1000E0005F0080EC90E0FC018081882F90E08072BE
:1000F00099270097B1F386EC90E02981FC012083D9
:1001000080E090E00F900F900F90DF91CF910895D5
:10011000CF93DF9300D000D0CDB7DEB781E290E07F
:10012000FC01108282E290E02FEFFC01208384E248
:1001300090E0FC01108285E290E02FEFFC0120832B
:1001400087E290E02FEFFC01208388E290E0FC0141
:10015000108280E290E0FC018081898383E290E05C
:10016000FC0180818A831B8208C0898181709B8108
:10017000890F8B8389818695898389818823A9F753
:1001800008C08A8181709B81890F8B838A818695C3
:100190008A838A818823A9F78B818C8388E290E007
:0C01A0002C81FC012083D5CFF894FFCF08
:0E01AC0000000002000000005F0000000000E4
:00000001FF
