:100000000C9446000C945D000C945D000C945D0013
:100010000C945D000C945D000C945D000C945D00EC
:100020000C945D000C945D000C945D000C945D00DC
:100030000C945D000C945D000C945D000C945D00CC
:100040000C945D000C945D000C945D000C945D00BC
:100050000C945D000C945D000C945D000C945D00AC
:100060000C945D000C945D000C945D000C945D009C
:100070000C945D000C945D000C945D000C945D008C
:100080000C945D000C945D000C945D0011241FBE67
:10009000CFEFD0E4DEBFCDBF11E0A0E0B1E0E2E001
:1000A000F2E000E00BBF02C007900D92AE30B10746
:1000B000D9F70E9488000C94FF000C940000CF93A5
:1000C000DF9300D01F92CDB7DEB789837B836A832D
:1000D00089818A3031F48A819B81BC018DE00E9444
:1000E0005F0080EC90E0FC018081882F90E08072BE
:1000F00099270097B1F386EC90E02981FC012083D9
:1001000080E090E00F900F900F90DF91CF910895D5
:10011000CF93DF9300D0CDB7DEB781E290E0FC0152
:10012000108282E290E02FEFFC01208384E290E0D5
:10013000FC01108285E290E02FEFFC01208387E232
:1001400090E02FEFFC01208388E290E0FC01108218
:1001500080E290E0FC0180818F708A8319828A811D
:10016000882311F480E489838A81813019F08A819F
:10017000823011F480E689838A81833019F08A8184
:10018000843011F480E789838A81853019F08A816F
:10019000863011F488E389838A81873031F08A813F
:1001A000883019F08A81893011F48CE389838A813F
:1001B0008A3031F08A818B3019F08A818C3011F4C9
:1001C0008EE389838A818D3031F08A818E3019F0F7
:1001D0008A818F3011F48FE3898380E290E0FC0103
:1001E000808180778A838A81803319F4898180585D
:1001F000898388E290E02981FC012083A9CFF894CB
:02020000FFCF2E
:0E02020000000002000000005F00000000008D
:00000001FF
