:100000000C9446000C945D000C945D000C945D0013
:100010000C945D000C945D000C945D000C945D00EC
:100020000C945D000C945D000C945D000C945D00DC
:100030000C945D000C945D000C945D000C945D00CC
:100040000C945D000C945D000C945D000C945D00BC
:100050000C945D000C945D000C945D000C945D00AC
:100060000C945D000C945D000C945D000C945D009C
:100070000C945D000C945D000C945D000C945D008C
:100080000C945D000C945D000C945D0011241FBE67
:10009000CFEFD0E4DEBFCDBF11E0A0E0B1E0E0EAF9
:1000A000F1E000E00BBF02C007900D92AE30B10747
:1000B000D9F70E9488000C94CE000C940000CF93D6
:1000C000DF9300D01F92CDB7DEB789837B836A832D
:1000D00089818A3031F48A819B81BC018DE00E9444
:1000E0005F0080EC90E0FC018081882F90E08072BE
:1000F00099270097B1F386EC90E02981FC012083D9
:1001000080E090E00F900F900F90DF91CF910895D5
:10011000CF93DF9300D01F92CDB7DEB781E290E09E
:10012000FC01108282E290E02FEFFC01208384E248
:1001300090E0FC01108285E290E02FEFFC0120832B
:1001400087E290E02FEFFC01208388E290E0FC0141
:10015000108280E290E0FC018081807F89831A8296
:10016000898182958F70898389818A8385E290E075
:100170002A81FC01208380E290E0FC0180818F7065
:1001800089831B8289818295807F898389818B8382
:1001900088E290E02B81FC012083DBCFF894FFCF35
:0E01A00000000002000000005F0000000000F0
:00000001FF
