:100000000C9446000C9465000C9465000C946500FB
:100010000C9465000C9465000C9465000C946500CC
:100020000C9465000C9465000C9465000C946500BC
:100030000C9465000C9465000C9465000C946500AC
:100040000C9465000C9465000C9465000C9465009C
:100050000C9465000C9465000C9465000C9465008C
:100060000C9465000C9465000C9465000C9465007C
:100070000C9465000C9465000C9465000C9465006C
:100080000C9465000C9465000C94650011241FBE4F
:10009000CFEFD0E4DEBFCDBF11E0A0E0B1E0ECECEB
:1000A000F2E000E00BBF02C007900D92AE30B10746
:1000B000D9F721E0AEE0B1E001C01D92A031B20756
:1000C000E1F70E943B010C945D010C940000CF937A
:1000D000DF9300D00F92CDB7DEB789837B836A832D
:1000E00089818A3031F48A819B81BC018DE00E9434
:1000F000670080EC90E0FC018081882F90E08072A6
:100100009927892BB1F386EC90E02981FC012083AB
:1001100080E090E00F900F900F90DF91CF910895C5
:10012000CF93DF9300D0CDB7DEB780E290E0FC0143
:10013000808180958A8388E290E0FC0180818983B8
:1001400080910E0190910F01CC01A0E0B0E08730CA
:100150009105A105B10508F047C0815A9E4FFC01E9
:100160000C94540181E090E090930F0180930E0174
:100170004BC08A81813031F482E090E090930F018E
:1001800080930E018A818130B1F583E090E09093F5
:100190000F0180930E012FC08A81813071F584E0B8
:1001A00090E090930F0180930E0127C08A818130E7
:1001B00031F585E090E090930F0180930E011FC010
:1001C0008A818130F1F486E090E090930F01809372
:1001D0000E0117C08A818130B1F482E090E09093E3
:1001E0000F0180930E010FC081E090E090930F010A
:1001F00080930E0109C0000007C0000005C0000088
:1002000003C0000001C0000080910E0190910F0119
:100210008630910509F18730910508F58530910503
:10022000C1F086309105D8F48430910579F085309D
:100230009105A8F48230910519F0039721F00FC0C1
:1002400081E289830DC082E189830AC08CE08983C1
:1002500007C085E2898304C08FE3898301C0000061
:1002600088E290E02981FC01208300000F900F902C
:10027000DF91CF910895CF93DF93CDB7DEB781E2C1
:1002800090E0FC01108282E290E02FEFFC012083DD
:1002900087E290E02FEFFC01208388E290E0FC01F0
:1002A00010820E949000FDCFEE0FFF1F0024001C63
:1002B0000BBE0790F691E02D0994F894FFCFB200A1
:0C02C000B900C200CC00D600E000EA004B
:0E02CC000000000200000000670000000000BB
:00000001FF
