:100000000C9446000C9465000C9465000C946500FB
:100010000C9465000C9465000C9465000C946500CC
:100020000C9465000C9465000C9465000C946500BC
:100030000C9465000C9465000C9465000C946500AC
:100040000C9465000C9465000C9465000C9465009C
:100050000C9465000C9465000C9465000C9465008C
:100060000C9465000C9465000C9465000C9465007C
:100070000C9465000C9465000C9465000C9465006C
:100080000C9465000C9465000C94650011241FBE4F
:10009000CFEFD0E4DEBFCDBF11E0A0E0B1E0EEEEE7
:1000A000F2E000E00BBF02C007900D92AE30B10746
:1000B000D9F721E0AEE0B1E001C01D92A431B20752
:1000C000E1F70E94A1000C9475010C940000CF93FD
:1000D000DF9300D00F92CDB7DEB789837B836A832D
:1000E00089818A3031F48A819B81BC018DE00E9434
:1000F000670080EC90E0FC018081882F90E08072A6
:100100009927892BB1F386EC90E02981FC012083AB
:1001100080E090E00F900F900F90DF91CF910895C5
:10012000CF93DF93CDB7DEB78AE790E0FC01208163
:100130008AE790E0206EFC0120830000DF91CF91E0
:100140000895CF93DF93CDB7DEB784E290E02FEF31
:10015000FC01208385E290E0FC0110828AE290E0BD
:100160002FEFFC0120838BE290E0FC0110820E94C3
:1001700090008FE090E090930F0180930E0188E74C
:1001800090E0FC0180819181909312018093110194
:1001900040910E0150910F019A01A3E9B4E20E942F
:1001A00066019A01281B390B36952795820F931FFC
:1001B0009C01369527953695279580911101909150
:1001C00012018217930718F081E08093100180914B
:1001D0000E0190910F019C01ABEABAEA0E94660100
:1001E0009C01369527953695279580911101909120
:1001F00012018217930718F083E080931001809119
:100200000E0190910F019C01ADECBCEC0E946601C7
:100210009C013695279536952795809111019091EF
:1002200012018217930718F087E0809310018091E4
:100230000E0190910F019C013695279536952795D3
:1002400080911101909112018217930718F08FE0AD
:100250008093100180910E0190910F019C01ABEAF7
:10026000BAEA0E9466019C0136952795809111019A
:10027000909112018217930718F08FE1809310017B
:1002800080910E0190910F019C01369527958091E8
:100290001101909112018217930718F08FE3809358
:1002A0001001209111013091120180910E01909165
:1002B0000F012817390718F08FE78093100185E2A6
:1002C00090E020911001FC01208359CFA29FB00142
:1002D000B39FC001A39F700D811D1124911DB29F7A
:0E02E000700D811D1124911D0895F894FFCF1B
:0E02EE00000000020000000067000000000099
:00000001FF
