:100000000C9446000C9465000C9465000C946500FB
:100010000C9465000C9465000C9465000C946500CC
:100020000C9465000C9465000C9465000C946500BC
:100030000C9465000C94DB010C9465000C94650035
:100040000C9465000C9465000C9465000C9465009C
:100050000C9465000C9465000C9465000C9465008C
:100060000C9465000C9465000C9465000C9465007C
:100070000C9465000C9465000C9465000C9465006C
:100080000C9465000C9465000C94650011241FBE4F
:10009000CFEFD0E4DEBFCDBF11E0A0E0B1E0EEE3F2
:1000A000F8E000E00BBF02C007900D92AC31B10741
:1000B000D9F721E0ACE1B1E001C01D92A432B20752
:1000C000E1F70E94C7030C9416040C940000CF9330
:1000D000DF93CDB7DEB781E00E948E000000DF9194
:1000E000CF910895CF93DF93CDB7DEB784E690E04C
:1000F0000E94330188E30E948E0086E00E948E00F9
:100100008FE00E948E0081E00E948E008AE090E0E5
:100110000E9433010000DF91CF910895CF93DF93C8
:100120000F92CDB7DEB789838BE290E0FC0120818E
:100130008BE290E02F7BFC01208388E290E0298114
:10014000FC0120838BE290E0FC0120818BE290E0B7
:100150002068FC01208300008BE290E0FC012081FC
:100160008BE290E02F77FC01208382E090E00E94F8
:10017000330100000F90DF91CF910895CF93DF936B
:100180000F92CDB7DEB789838BE290E0FC0120812E
:100190008BE290E02064FC01208388E290E02981DA
:1001A000FC0120838BE290E0FC0120818BE290E057
:1001B0002068FC01208300008BE290E0FC0120819C
:1001C0008BE290E02F77FC01208381E090E00E9499
:1001D000330100000F90DF91CF910895CF93DF930B
:1001E00000D000D0CDB7DEB78A837C836B830E94BA
:1001F00067008A81898311C0898191E0980F998372
:100200000E941C018B819C819C012F5F3F4F3C838E
:100210002B83FC0180810E94BE008B819C81FC01AC
:100220008081882349F7000000000F900F900F9005
:100230000F90DF91CF910895CF93DF930F92CDB7B9
:10024000DEB789838981813128F4898181580E94B0
:100250008E0004C0898181550E948E0000000F909D
:10026000DF91CF910895CF93DF9300D000D000D0DD
:10027000CDB7DEB79E838D831A82198213C01C828C
:100280001B8206C000008B819C8101969C838B831E
:100290008B819C8187309340ACF389819A81019650
:1002A0009A83898329813A818D819E812817390714
:1002B00034F30000000026960FB6F894DEBF0FBEA0
:1002C000CDBFDF91CF910895CF93DF9300D00F92F0
:1002D000CDB7DEB789837B836A8389818A3031F425
:1002E0008A819B81BC018DE00E94640180EC90E0DA
:1002F000FC018081882F90E080729927892BB1F3CF
:1003000086EC90E02981FC01208380E090E00F9052
:100310000F900F90DF91CF910895CF93DF93CDB7DA
:10032000DEB781E890E02BE0FC01208388E890E0D4
:100330002DE730E0FC01318320838FE690E022E05E
:10034000FC01208384E890E0FC01118210828091FE
:100350000E0190910F01A0911001B09111018093B5
:100360001D0190931E01A0931F01B09320018FE502
:1003700090E0FC0120818FE590E02068FC01208363
:100380000000DF91CF910895CF93DF93CDB7DEB713
:1003900081E890E0FC0110820000DF91CF91089588
:1003A000CF93DF93CDB7DEB781E080931C010000CF
:1003B000DF91CF9108951F920F920FB60F921124E3
:1003C0000BB60F922F933F934F935F936F937F934F
:1003D0008F939F93AF93BF93EF93FF93CF93DF934D
:1003E000CDB7DEB780911D0190911E01A0911F0134
:1003F000B09120010197A109B10980931D0190934B
:100400001E01A0931F01B093200180911D019091C6
:100410001E01A0911F01B0912001892B8A2B8B2BEB
:1004200091F40E94D00180910E0190910F01A09152
:100430001001B091110180931D0190931E01A093B2
:100440001F01B09320010000DF91CF91FF91EF9148
:10045000BF91AF919F918F917F916F915F914F91DC
:100460003F912F910F900BBE0F900FBE0F901F90DA
:100470001895CF93DF9300D000D0CDB7DEB7698356
:100480007A838B839C8389819A81AB81BC818093A1
:100490000E0190930F01A0931001B0931101809170
:1004A0000E0190910F01A0911001B0911101809364
:1004B0001D0190931E01A0931F01B0932001000025
:1004C0000F900F900F900F90DF91CF910895CF93E1
:1004D000DF9300D0CDB7DEB780E290E0FC018081F1
:1004E00080958A8319828091220190912301CC0109
:1004F000A0E0B0E087309105A105B10508F0B9C0D2
:10050000885E9B4FFC010C940D0481E090E0909379
:10051000230180932201B9C08A818823B1F085E24A
:1005200090E0FC018081898385E090E09093230135
:100530008093220180912101882309F49FC080913A
:10054000210181508093210199C082E090E0909335
:1005500023018093220192C08A81882389F085E259
:1005600090E0FC018081898385E090E090932301F5
:1005700080932201809121018F5F8093210185C0AA
:1005800084E090E090932301809322017EC08A81D1
:100590008823B1F085E290E0FC018081898385E0C9
:1005A00090E0909323018093220180912101882380
:1005B00009F466C08091210181508093210160C0BF
:1005C00083E090E0909323018093220159C08A81B7
:1005D000882389F085E290E0FC018081898385E0B1
:1005E00090E09093230180932201809121018F5FFD
:1005F000809321014AC081E090E090932301809391
:10060000220143C08A81882361F085E290E0FC01E9
:100610008081898385E090E090932301809322017B
:1006200031C08A81882371F585E290E0FC018081E8
:10063000898386E090E0909323018093220122C079
:100640008A81882361F485E290E0FC0180818983BE
:1006500086E090E0909323018093220115C08A8167
:10066000882391F081E090E0909323018093220110
:100670000BC0109223011092220107C0000005C098
:10068000000003C0000001C0000080912201909191
:1006900023018630910509F467C08730910508F081
:1006A00069C08530910509F44CC08630910508F089
:1006B00061C08430910559F18530910508F05AC028
:1006C0008330910589F18430910508F053C0813061
:1006D000910519F0029771F04DC085E290E021E09C
:1006E000FC0120830E94670080912101805D0E94AF
:1006F000BE0047C085E290E022E0FC0120830E941A
:10070000670080912101805D0E94BE003AC085E2B1
:1007100090E024E0FC0120830E9467008091210189
:10072000805D0E94BE002DC085E290E022E0FC01C9
:1007300020830E94670080912101805D0E94BE009D
:1007400020C085E290E02981FC0120838091210175
:100750008930B1F40E94670062E171E081E00E949B
:10076000EE00109221010CC085E290E02981FC018D
:10077000208307C085E290E021E0FC01208301C0D6
:10078000000000000F900F90DF91CF910895CF935C
:10079000DF93CDB7DEB781E290E0FC01108282E208
:1007A00090E02FEFFC01208384E290E02FEFFC012A
:1007B000208385E290E0FC01108287E290E02FEF39
:1007C000FC01208388E290E0FC0110828AE290E044
:1007D0002FEFFC0120838BE290E0FC0110820E944D
:1007E000720081E00E941C0162E370E080E090E012
:1007F0000E9439020E948D01109223011092220161
:1008000080E30E94BE000E946702000080911C01EC
:100810008823E1F310921C01F6CFEE0FFF1F002496
:10082000001C0BBE0790F691E02D0994F894FFCFC1
:0E08300085028C02AC02E702C702020320031D
:10083E000000000200000000640100000000010042
:0C084E000000596F752057696E210000F2
:00000001FF
