:100000000C9446000C9465000C9465000C946500FB
:100010000C9465000C9465000C9465000C946500CC
:100020000C9465000C9465000C9465000C946500BC
:100030000C9465000C9465000C9465000C946500AC
:100040000C9465000C9465000C9465000C9465009C
:100050000C9465000C9465000C9465000C9465008C
:100060000C9465000C9465000C9465000C9465007C
:100070000C9465000C9465000C9465000C9465006C
:100080000C9465000C9465000C94650011241FBE4F
:10009000CFEFD0E4DEBFCDBF11E0A0E0B1E0EAE9F0
:1000A000F6E000E00BBF02C007900D92AE30B10742
:1000B000D9F721E0AEE0B1E001C01D92A231B20754
:1000C000E1F70E9473010C944B030C940000CF9352
:1000D000DF9300D00F92CDB7DEB789837B836A832D
:1000E00089818A3031F48A819B81BC018DE00E9434
:1000F000670080EC90E0FC018081882F90E08072A6
:100100009927892BB1F386EC90E02981FC012083AB
:1001100080E090E00F900F900F90DF91CF910895C5
:10012000CF93DF93CDB7DEB764970FB6F894DEBFF9
:100130000FBECDBF69837A838B839C8380910E0130
:1001400090910F01A0911001B09111019C01AD019E
:1001500069817A818B819C810E94B701882309F48F
:1001600091C020E030E0A90169817A818B819C8176
:100170000E94B701882351F481E990E0DC012C91C1
:1001800081E990E02870FC01208309C081E990E0BA
:10019000DC012C9181E990E02360FC01208328E5BB
:1001A00039E344E75FE369817A818B819C810E9416
:1001B000B70188234CF488E990E02FEF3FEFDC0192
:1001C00011963C932E934DC020E034E244EF56E468
:1001D00069817A818B819C810E94D902181634F43E
:1001E00088E990E0FC01118210823BC020E030E001
:1001F00040E053E469817A818B819C810E94DE0218
:1002000069877A878B879C8789859A85AB85BC852A
:100210009C01AD0160E074E284EF9AE40E94BC01AD
:100220006D877E878F87988B8D859E85AF85B889F2
:100230008D839E83AF83B8876D817E818F81988502
:100240000E942E02698B7A8B8B8B9C8B89899A8971
:100250009C012150310988E990E0DC0111963C9322
:100260002E9384E990E0FC011182108289819A81A9
:10027000AB81BC8180930E0190930F01A09310017C
:10028000B0931101000064960FB6F894DEBF0FBE64
:10029000CDBFDF91CF910895CF93DF93CDB7DEB778
:1002A00080E990E020E4FC01208381E990E02BE0EC
:1002B000FC01208360E070E0CB010E949000000010
:1002C000DF91CF910895CF93DF93CDB7DEB780E96B
:1002D00090E0FC01108281E990E0FC0110820000B6
:1002E000DF91CF910895CF93DF930F92CDB7DEB713
:1002F00081E290E0FC01108282E290E02FEFFC01AD
:10030000208384E290E02FEFFC01208385E290E0DF
:10031000FC0110820E944C0180E290E0FC0180818F
:100320008095877089838981813039F464EA70ED22
:1003300082E893E40E949000EFCF8981823039F403
:100340006BE774ED82E993E40E949000E5CF898128
:10035000843039F464EA70ED84EA93E40E949000FA
:10036000DBCF60E070E0CB010E949000D5CF0E940F
:10037000640208F481E008950E94D0010C949F0269
:100380000E94980258F00E94910240F029F45F3FC9
:1003900029F00C94880251110C94D3020C948E0213
:1003A0000E94B00268F39923B1F3552391F3951B92
:1003B000550BBB27AA2762177307840738F09F5F86
:1003C0005F4F220F331F441FAA1FA9F335D00E2EF3
:1003D0003AF0E0E832D091505040E695001CCAF760
:1003E0002BD0FE2F29D0660F771F881FBB1F261723
:1003F00037074807AB07B0E809F0BB0B802DBF01FA
:10040000FF2793585F4F3AF09E3F510578F00C94C8
:1004100088020C94D3025F3FE4F3983ED4F38695B0
:1004200077956795B795F7959F5FC9F7880F911DE9
:100430009695879597F90895E1E0660F771F881FD5
:10044000BB1F621773078407BA0720F0621B730B88
:10045000840BBA0BEE1F88F7E09508950E943502D1
:100460006894B1110C94D30208950E94B80288F0E8
:100470009F5798F0B92F9927B751B0F0E1F0660F68
:10048000771F881F991F1AF0BA95C9F714C0B130A9
:1004900091F00E94D202B1E008950C94D202672F2D
:1004A000782F8827B85F39F0B93FCCF386957795D8
:1004B0006795B395D9F73EF49095809570956195C1
:1004C0007F4F8F4F9F4F0895990F0008550FAA0B2C
:1004D000E0E8FEEF16161706E807F907C0F0121657
:1004E0001306E407F50798F0621B730B840B950B5A
:1004F00039F40A2661F0232B242B252B21F40895AF
:100500000A2609F4A140A6958FEF811D811D08954B
:1005100097F99F6780E870E060E008959FEF80ECB6
:10052000089500240A941616170618060906089559
:1005300000240A9412161306140605060895092EBF
:100540000394000C11F4882352F0BB0F40F4BF2B2E
:1005500011F460FF04C06F5F7F4F8F4F9F4F08956E
:1005600057FD9058440F551F59F05F3F71F0479564
:10057000880F97FB991F61F09F3F79F08795089549
:10058000121613061406551FF2CF4695F1DF08C068
:10059000161617061806991FF1CF86957105610585
:1005A00008940895E894BB2766277727CB0197F92D
:1005B00008950E94640208F48FEF08950E94F102EA
:1005C0000C949F020E94910238F00E94980220F041
:1005D000952311F00C9488020C948E0211240C9433
:1005E000D3020E94B00270F3959FC1F3950F50E0C3
:1005F000551F629FF001729FBB27F00DB11D639FD5
:10060000AA27F00DB11DAA1F649F6627B00DA11D7A
:10061000661F829F2227B00DA11D621F739FB00D20
:10062000A11D621F839FA00D611D221F749F332790
:10063000A00D611D231F849F600D211D822F762F29
:100640006A2F11249F5750409AF0F1F088234AF006
:10065000EE0FFF1FBB1F661F771F881F9150504072
:10066000A9F79E3F510580F00C9488020C94D302A8
:100670005F3FE4F3983ED4F3869577956795B795F9
:10068000F795E7959F5FC1F7FE2B880F911D969513
:0A069000879597F90895F894FFCFBD
:0E069A000000000200000000670000000000E9
:00000001FF
